:020000040800F2
:1000000000400020312E0008852C0008872C0008B5
:1000100000000000000000000000000000000000E0
:10002000000000000000000000000000892C000813
:1000300000000000000000008B2C00088D2C000840
:10004000812E0008812E0008812E0008812E0008D4
:10005000812E0008812E0008812E0008812E0008C4
:10006000812E0008812E0008812E0008812E0008B4
:10007000812E0008812E0008812E0008812E0008A4
:10008000812E0008812E0008E52C0008812E000832
:10009000812E0008812E0008812E0008812E000884
:1000A000812E0008812E0008812E0008812E000874
:1000B000812E0008952C0008812E0008812E000852
:1000C00010B5064C2378002B07D1054B002B02D02E
:1000D000044800E000BF0123237010BDEC000020A5
:1000E00000000000F43D0008044B10B5002B03D0C5
:1000F0000349044800E000BF10BDC04600000000F6
:10010000F0000020F43D0008002243088B4274D325
:1001100003098B425FD3030A8B4244D3030B8B4208
:1001200028D3030C8B420DD3FF22090212BA030C11
:100130008B4202D31212090265D0030B8B4219D3F2
:1001400000E0090AC30B8B4201D3CB03C01A524112
:10015000830B8B4201D38B03C01A5241430B8B425A
:1001600001D34B03C01A5241030B8B4201D30B0343
:10017000C01A5241C30A8B4201D3CB02C01A52416A
:10018000830A8B4201D38B02C01A5241430A8B422D
:1001900001D34B02C01A5241030A8B4201D30B0216
:1001A000C01A5241CDD2C3098B4201D3CB01C01A30
:1001B000524183098B4201D38B01C01A524143093A
:1001C0008B4201D34B01C01A524103098B4201D328
:1001D0000B01C01A5241C3088B4201D3CB00C01A95
:1001E000524183088B4201D38B00C01A524143080D
:1001F0008B4201D34B00C01A5241411A00D2014632
:10020000524110467047FFE701B5002000F006F8A4
:1002100002BDC0460029F7D076E770477047C04658
:1002200010B5040000F020FEFA218900FFF76CFFF2
:1002300000F060F8012000222100404200F020F888
:10024000002010BD10B5064A136810210B4313603F
:100250000020FFF7E5FF02F0A7FB002010BDC0461D
:1002600000200240024A1368013313607047C04601
:10027000A0020020014B18687047C046A002002071
:1002800070B5002811DB8408134DC034A4006259F6
:1002900003231840C000FC331E008640B24389018E
:1002A0000B4083401343635170BDC0B20F22024024
:1002B000083A920806329200084BD3185D6803246E
:1002C0002040C000FF2214008440A54389010A4059
:1002D00082402A435A60E7E700E100E000ED00E0D9
:1002E0001F2318401E3B8340014A13607047C046DD
:1002F00000E100E001380A4B98420FD8094A5060EB
:100300000948036A1B021B0AC02109060B4303624A
:100310000023936007331360002070470120FCE73F
:10032000FFFFFF0010E000E000ED00E010B521232A
:10033000C35C022B03D004238363012010BD026839
:1003400013680E218B43136001680A6801239A43E6
:100350000A60C26B1900046CA140516021228354D1
:100360001F330022C254436B002B02D09847002059
:10037000E4E70020E2E70000F0B5C64600B582B031
:10038000002338E0042600E00026AE4035003D435F
:100390000234A400574EA551574C25684246D44319
:1003A0002E0026404A68D20302D5424615432E004D
:1003B000514D2E606D682E0026404A68920302D58A
:1003C000424615432E004C4D6E60AD682E0026400F
:1003D0004A68D20202D5424615432E00464DAE6011
:1003E000ED682C404A68920202D542462A43140026
:1003F000414AD46001330A681400DC4076D00125FC
:100400009D402A409046F5D04C68022C01D0122C19
:100410000ED1DC080834A400275807261E40B60079
:100420000F22B24097430A69B24016003E4326505D
:1004300002685F0003242600BE40F6433240944623
:100440004A681440BC406246144304604C68621E13
:10045000012A03D9112C01D0122C10D18468344008
:10046000A446CC68BC406246144384604468AC43F4
:100470004A681209012515409D4025434560C4681E
:1004800026408C68BC403443C4604A68D200B1D571
:100490001A4DAE6901242643AE61AD692C4001942A
:1004A000019C9C08A51CAD00124EAF5903261E40AE
:1004B000B5000F26AE40B7439026F605B04200D1F6
:1004C00062E70F4EB0420BD00E4EB0420AD00E4E35
:1004D000B04209D00D4EB04200D153E7052654E793
:1004E000012652E7022650E703264EE702B004BC7D
:1004F0009046F0BD000001400004014000100240A1
:100500000004004800080048000C004800100048A3
:10051000002A01D1816270478161FCE710B5041E99
:1005200059D04123C35C002B43D041232422E25401
:100530002268136801218B4313602268274B61688E
:100540000B4013612268936825490B409360E36870
:10055000012B34D0226884231B02A1680B439360D3
:10056000E368022B32D0226851681E4B0B43536064
:100570002268D3681A490B40D36023696269134328
:10058000A269120221681343CB602268E369216AE1
:100590000B4313602268136801210B43136000238F
:1005A000636441221F31A15423630132A35400200C
:1005B00010BD40330022C25402F00EFAB5E72268A3
:1005C00080231B02A1680B439360C9E72368802244
:1005D00012015A60C7E70120EAE7C046FFFFFFF0BB
:1005E000FF7FFFFF00800002F0B54123C35C202B9A
:1005F00020D12033C35C012B1ED0402401220255A0
:1006000041252423435506683368934333600668C5
:1006100033680A4F3B4033600668336819433160E2
:1006200001680B6813430B602023435500230355D7
:10063000002000E00220F0BD0220FCE7FFEFFFFFFA
:10064000F0B54123C35C202B1ED12033C35C012BAA
:100650001CD040240122025541252423435506681D
:1006600033689343336006683368094F3B4009029F
:100670001943316001680B6813430B602023435515
:1006800000230355002000E00220F0BD0220FCE71B
:10069000FFF0FFFF70B5041E58D0EA23FF33C35CA0
:1006A000002B05D0EA23FF330322E254002218E096
:1006B000E933FF330022C25402F0CEFAF2E7D10050
:1006C000891A8B00E31819002931012008700139BB
:1006D0000A7018002B300021017059639963D963A7
:1006E000013260689042EAD8002214E0D100891AF1
:1006F0008B00E3181D000A35FF3500212970013DEC
:100700002A700335297009352960043529601D33A5
:10071000FF33196001329042E8D84023012221685A
:10072000CA5200222168CA524421206842520C3128
:1007300020684252064A2168CA5200221C3BE254F9
:100740000122EA23FF33E254002070BD0120FCE7C0
:1007500000BFFFFF70B582B004000368DB072BD534
:10076000B34B5A680C231340042B1DD0B04B5A686E
:100770000C231340082B0ED06368012B41D0002BB3
:1007800056D1AB4B1A68AB490A401A601A68AA499D
:100790000A401A603BE0A64B5B68C022520213403D
:1007A000802252029342E7D1A14B1B689B0303D5E1
:1007B0006368002B00D139E223689B0778D59C4BF6
:1007C0005B680C221A4262D0994B5A680C23134082
:1007D000082B53D0E368002B00D18BE0944A1368B8
:1007E00001210B431360FFF745FD0500904B1B688B
:1007F0009B0776D4FFF73EFD401B0228F6D9032065
:1008000017E28B4A116880235B020B431360636815
:10081000002B25D0FFF72EFD0500854B1B689B03A1
:10082000CAD4FFF727FD401B6428F6D9032000E255
:10083000052B09D07E4B1A687E490A401A601A6857
:100840007D490A401A60E2E7794B19688022D2029A
:100850000A431A601968802252020A431A60D6E7D6
:10086000FFF708FD0500724B1B689B03A4D5FFF73B
:1008700001FD401B6428F6D90320DAE16C4B5B686C
:10088000C02252021340802212029342A2D1684B2E
:100890001B689B0704D5E368012B01D00120C8E148
:1008A00063490B68F82293432269D20013430B601B
:1008B00023681B0744D5E369002B2ED05C4A536A9A
:1008C00001210B435362FFF7D5FC0500584B5B6ACF
:1008D0009B0735D4FFF7CEFC401B0228F6D9032036
:1008E000A7E153490B68F82293432269D2001343CE
:1008F0000B60DDE74E4A136801218B431360FFF75D
:10090000B9FC05004A4B1B689B07D1D5FFF7B2FC29
:10091000401B0228F6D903208BE1454A536A012186
:100920008B435362FFF7A6FC0500414B5B6A9B07B4
:1009300006D5FFF79FFC401B0228F6D9032078E17B
:1009400023685B0700D47FE0394BDB69DB001DD4F3
:10095000374AD169802040050143D161D369034002
:100960000193019B0125354B1B68DB0510D5A3685E
:10097000012B21D0002B36D12D4B1A6A01218A433D
:100980001A621A6A03318A431A621AE00025EAE7FA
:100990002A4A116880235B000B431360FFF76AFC4F
:1009A0000600264B1B68DB05E1D4FFF763FC801BC8
:1009B0006428F6D903203CE11D4A136A01210B4348
:1009C0001362A368002B24D0FFF754FC0600184BD9
:1009D0001B6A9B0736D4FFF74DFC801B184B9842CF
:1009E000F5D9032025E1052B09D0114B1A6A012105
:1009F0008A431A621A6A03318A431A62E1E70C4B8E
:100A00001A6A04210A431A621A6A03390A431A62EB
:100A1000D7E7FFF72FFC0600054B1B6A9B0711D594
:100A2000FFF728FC801B064B9842F5D9032000E114
:100A300000100240FFFFFEFFFFFFFBFF00700040C1
:100A400088130000012D3AD02368DB0610D56369B6
:100A5000012B3AD0053358D1784A536B04218B438C
:100A60005363536BF4318B43A169C9000B43536348
:100A700023689B0600D482E0704B5A680C23134015
:100A80000C2B60D06D4B5A680C231340082B53D0AD
:100A9000236A002B60D0694A516B80235B020B43B1
:100AA0005363FFF7E7FB0500644B5B6BDB0366D426
:100AB000FFF7E0FB401B0228F6D90320B9E05F4AAC
:100AC000D3695F490B40D361BEE75C4B5A6B04218D
:100AD0000A435A635A6B03390A435A63FFF7CAFB46
:100AE0000500564B5B6B9B0706D4FFF7C3FB401B0F
:100AF0000228F6D903209CE050494B6BF82293431F
:100B0000A269D20013434B63B2E74C4B5A6B0421EA
:100B10000A435A635A6B03398A435A63FFF7AAFBA5
:100B20000500464B5B6B9B07A2D5FFF7A3FB401B61
:100B30000228F6D903207CE0404B5B68C0225202B9
:100B400013409342A4D13D4B5B6BDB0317D5236A63
:100B5000012B14D001206CE0384A536B39490B400B
:100B60005363FFF787FB0500344B5B6BDB0306D554
:100B7000FFF780FB401B0228F6D9032059E0636A87
:100B8000002B55D02D4A51680C220A40082A52D019
:100B9000022B12D0294A13682B490B401360FFF730
:100BA00069FB0400254B1B689B013DD5FFF762FBE9
:100BB000001B0228F6D903203BE0204A1368224993
:100BC0000B401360FFF756FB05001C4B1B689B0195
:100BD00006D5FFF74FFB401B0228F6D9032028E07B
:100BE000164BDA6A0F218A43216B0A43DA625A688C
:100BF00016490A40E16AA06A01430A435A6019682B
:100C0000802252040A431A60FFF734FB04000B4BA6
:100C10001B689B0106D4FFF72DFB001B0228F6D9A9
:100C2000032006E0002004E0002002E0012000E0B4
:100C3000002002B070BD0120FBE7C046001002405A
:100C4000FFFFFFEFFFFFFEFFFFFFFFFEFF7FC2FF83
:100C500030B589B004AA1F4B180032C832C2110047
:100C600002680A606A46103313CB13C21B68136014
:100C7000194B5A680C231340082B04D00C2B26D098
:100C8000164809B030BD910C0F23194004A8445CEC
:100C90001149C96A0B406946C95CC0235B021A400E
:100CA00080235B029A4208D0C0235B029A4209D09B
:100CB0000A48FFF729FA6043E3E70848FFF724FAF8
:100CC0006043DEE70648FFF71FFA6043D9E70448B0
:100CD000D7E7C0460C3E00080010024000127A0020
:100CE000006CDC0270B505000C00594B1A6801233A
:100CF00013408B420BD256490B6801229343234386
:100D00000B600B681A40A24201D0012070BD2B6815
:100D10009B0706D54F4A5368F0218B43A9680B43C4
:100D200053602B68DB0763D56B68012B09D0022B5E
:100D300028D0032B2CD0474A1268920705D40120F3
:100D4000E4E7444A126892037FD542494A68032087
:100D5000824313434B60FFF78DFA06006B68012B4B
:100D60001CD0022B28D0032B34D03A4B5B680C22CA
:100D70001A423DD0FFF77EFA801B374B9842F4D9D8
:100D80000320C3E7334A12689201DED40120BDE795
:100D9000304A526BD203D8D40120B7E72D4B5A68A2
:100DA0000C231340042B23D0FFF764FA801B2A4B3B
:100DB0009842F3D90320A9E7264B5A680C23134025
:100DC000082B15D0FFF756FA801B234B9842F3D916
:100DD00003209BE71F4B5A680C2313400C2B07D0B2
:100DE000FFF748FA801B1C4B9842F3D903208DE78C
:100DF000174B1A6801231340A3420BD914490B68FF
:100E00000122934323430B600B681A40A24201D096
:100E100001207BE72B685B0706D50E4A53680F4914
:100E20000B40E9680B435360FFF712FF094B5A6808
:100E300012090F2313400A4AD35CD840094B1860AB
:100E40000020FFF7EDF9002060E701205EE7C046D3
:100E5000002002400010024088130000FFF8FFFF4E
:100E60007C40000884000020014B18687047C04691
:100E70008400002010B5FFF7F7FF044B5A68120AF0
:100E800007231340024AD35CD84010BD0010024033
:100E90008C40000870B582B004000368DB0335D5D0
:100EA0004B4BDB69DB0066D4494AD16980204005A1
:100EB0000143D161D36903400193019B0125454B57
:100EC0001B68DB0559D5424B1B6AC02292001340B8
:100ED00013D061680A409A420FD03D4B186A3E4ACF
:100EE00002401E6A8021490231431962196A3B4E51
:100EF000314019621A62C30753D4354A136A36491E
:100F00000B4061680B431362012D59D02368DB0746
:100F100006D52F4A136B03218B43A1680B43136340
:100F200023689B0706D52A4A136B2D490B40E168BD
:100F30000B43136323689B0606D5254A136B1021C8
:100F40008B4321690B43136323689B0306D5204A17
:100F5000136B80218B43A1690B43136323685B05EB
:100F600033D51B4A136B40218B4361690B431363D9
:100F7000002002B070BD0025A1E7164A1168802349
:100F80005B000B431360FFF775F90600114B1B68FC
:100F9000DB0598D4FFF76EF9801B6428F6D903208F
:100FA000E7E7FFF767F90600094B1B6A9B07A4D424
:100FB000FFF760F9801B0B4B9842F5D90320D8E767
:100FC000D36909490B40D361A0E70020D1E7C046AF
:100FD0000010024000700040FFFCFFFFFFFFFEFF1B
:100FE000FFFFFCFF88130000FFFFFFEF10B5041E9A
:100FF0005ED0002383625D33C35C002B4CD05D2345
:101000000222E2542268136840218B431360E36894
:10101000E022D200934245D90022F02109018B42FF
:1010200005D0E021C9008B4201D00021A162216BD3
:10103000002905D1E021C9008B4236D90223236360
:101040006368A1680B4321690B4361690B438021ED
:101050008900A06901400B43E1690B43216A0B43FE
:101060002168A06A03430B60618B04230B40616A13
:101070000B43616B0B43E1680B43216813434B60E7
:101080002268D3690B490B40D361002323665D338B
:101090000122E254002010BD5C330022C25401F052
:1010A000D1FCACE780225201B7E701232363C7E7F5
:1010B0000120F0E7FFF7FFFF0368DA6801210A4328
:1010C000DA60026813680B43136000207047000069
:1010D0000268D36801218B43D3600368196A064A0A
:1010E000114207D1196A054A114203D11A68012138
:1010F0008A431A6000207047111100004404000068
:101100007047704770477047704710B50400036818
:101110001A6992070FD5DA6892070CD5032252425A
:101120001A610123037703689B699B0763D0FFF76C
:10113000E9FF0023237723681A69520712D5DA687A
:1011400052070FD5052252421A61022323772368E2
:101150009A69C0239B001A4253D02000FFF7D2FFA8
:101160000023237723681A69120710D5DA6812075B
:101170000DD5092252421A61042323772368DB69C3
:101180009B0745D02000FFF7BDFF0023237723688E
:101190001A69D20612D5DA68D2060FD51122524248
:1011A0001A61082323772368DA69C0239B001A4257
:1011B00035D02000FFF7A6FF0023237723681A69A4
:1011C000D20702D5DA68D20730D423681A6912062A
:1011D00002D5DA68120630D423681A69520602D59D
:1011E000DA68520630D423681A69920602D5DA68A2
:1011F000920630D410BDFFF784FF2000FFF783FF75
:1012000097E72000FFF77DFF2000FFF77CFFA7E7AF
:101210002000FFF776FF2000FFF775FFB5E72000FD
:10122000FFF76FFF2000FFF76EFFC5E70222524273
:101230001A612000FFF764FFC7E7812252421A615A
:10124000200000F0A2F8C7E7412252421A612000B4
:10125000FFF75AFFC7E7212252421A61200000F02F
:1012600093F8C7E70368214A904206D08022D2054E
:10127000904202D01E4A904203D1702293434A68A2
:1012800013431A4A904212D08022D20590420ED0C7
:10129000174A90420BD0174A904208D0164A904203
:1012A00005D0164A904202D0154A904203D1154A01
:1012B0001340CA681343802293434A69134303606F
:1012C0008B68C3620B688362084B984208D00A4B54
:1012D000984205D0094B984202D0094B984201D15F
:1012E0000B690363012343617047C046002C014032
:1012F0000004004000200040004001400044014044
:1013000000480140FFFCFFFF70B5041E14D03D23D0
:10131000C35C002B0AD03D2502236355211D2068A4
:10132000FFF7A0FF01236355002070BD3C3300226E
:10133000C25401F0BBFBEEE70120F6E7F0B53C2319
:10134000C35C012B1ED03C22012585543D24022381
:101350000355066873687027BB437360066873683B
:101360000F683B4373600668B3688027BB43B36074
:101370000668B36849680B43B3600555002383547E
:101380000020F0BD0220FCE77047704710B5040054
:101390000023002000E00133072B08D899000F221A
:1013A0008A401442F7D001229A401043F3E710BD5F
:1013B00070B5041E4ED03C23C35C002B02D13D33DC
:1013C0000022C2543C230222E254200001F08CFB94
:1013D000236801221A60206802686368A1680B43D1
:1013E000216949040B4361690B43A1690B43E1691E
:1013F0000B43616A0B43A16A0B4313430360E36829
:10140000012B20D0236B626B1343A26B1343226822
:10141000DB4313612268236B616B0B439362236888
:10142000A26B1A622568206BFFF7B0FF2863216862
:101430004B68032293434B6023689A603C23023A33
:10144000E254002070BD2268116880235B020B43C8
:101450001360D7E70120F5E70268136806490B40DF
:101460001360026893682331FF318B4393606A23D2
:101470002022C2547047C046DFFEFFFF704770470E
:10148000704710B5406A00235A228352083A8352AB
:10149000FFF7F6FF10BD000070B504008368026915
:1014A000134342691343C269134301680A687348CE
:1014B000024013430B602268536871490B40E16896
:1014C0000B435360A269236A1A4321688B686D48F5
:1014D000034013438B6025686B4B9D4226D06B4BBA
:1014E0009D4237D06A4B9D4256D06A4B9D424FD0A9
:1014F000102380221202E16991424FD0022B00D1C9
:10150000A0E000D88EE0042B00D1A7E0082B00D08B
:10151000B2E06168480880231B029C466044FEF7E5
:10152000F3FD0004000CE860002060E05A4B1A6BE9
:1015300003231340012B09D0002B05D0022B07D029
:10154000032B27D01023D4E70023D2E70423D0E7CE
:101550000823CEE7504B1B6BC0229202134080221F
:10156000520293420ED009D98022920293420BD0AC
:10157000C0229202934209D10223BAE7002B05D17F
:101580000023B6E70423B4E70823B2E71023B0E74B
:101590000023AEE70223ACE70023AAE7022B27D003
:1015A0000FD9042B2FD0082B39D16368580880231A
:1015B0005B029C4660446168FEF7A6FD83B2002092
:1015C0000CE0002B2BD1FFF755FC400063685B0853
:1015D000C0186168FEF798FD83B200200F22190041
:1015E00091435B10083A13400B432268D36070BDEF
:1015F00063685808294B9C4660446168FEF784FD87
:1016000083B20020EAE7FFF723FB400063685B0832
:10161000C0186168FEF778FD83B20020DEE7012084
:101620000023DBE7002B27D1FFF724FC63685B086E
:10163000C0186168FEF768FD23680004000CD860DC
:101640000020D4E761684808154B9C466044FEF7CB
:101650005BFD0004000CE8600020C8E7FFF7F8FA23
:1016600063685B08C0186168FEF74EFD23680004DC
:10167000000CD8600020BAE70120B8E7F369FFEF5B
:10168000FFCFFFFFFFF4FFFF0038014000440040A0
:1016900000480040004C0040001002400024F400CC
:1016A00000127A00436ADB0706D5026853682C49AA
:1016B0000B40816A0B435360436A9B0706D502685F
:1016C000536828490B40C16A0B435360436A5B0768
:1016D00006D50268536824490B40016B0B435360E5
:1016E000436A1B0706D50268536820490B40416BCB
:1016F0000B435360436ADB0606D5026893681C49B6
:101700000B40816B0B439360436A9B0606D50268CE
:10171000936818490B40C16B0B439360436A5B06A7
:101720000BD50268536814490B40016C0B4353609E
:1017300080235B03026C9A420AD0436A1B0606D5DB
:10174000026853680D490B40816C0B43536070472E
:10175000026853680A490B40416C0B435360ECE745
:10176000FFFFFDFFFFFFFEFFFFFFFBFFFF7FFFFF10
:10177000FFEFFFFFFFDFFFFFFFFFEFFFFFFFF7FFC1
:10178000FFFF9FFFF0B5C64600B506000C0017002E
:101790009846069D3368DB6923401B1B5A42534120
:1017A000BB421ED16B1CF5D0002D05D0FEF762FDAB
:1017B0004346C01AA842EDD9326813680B490B4062
:1017C000136032689368A331FF318B439360202309
:1017D0006922B3540132B35448330022F254032037
:1017E00000E0002004BC9046F0BDC0465FFEFFFF55
:1017F000F0B585B004000E0017001D006923C35C1E
:10180000202B59D100295AD0002A5AD080235B01BD
:1018100082689A4213D06823E35C012B53D068237B
:101820000122E2540023E36669332032E254FEF7DA
:1018300021FD03905023E7520233E7520AE0036987
:10184000002BE8D1CB07E6D5012036E033782268BB
:10185000138501365223E35A9BB2002B1CD052222F
:10186000A35A013B9BB2A3520095039B0022802107
:101870002000FFF787FF002827D180235B01A268A3
:101880009A42E3D12369002BE0D13388DB05DB0DDD
:10189000226813850236DDE70095039B0022402174
:1018A0002000FFF76FFF002811D169232022E254A6
:1018B000013B0022E25400E0022005B0F0BD01200F
:1018C000FBE70120F9E70220F7E70320F5E7032013
:1018D000F3E7000030B583B004000023C366FEF7D1
:1018E000C9FC05002368194A93420DD0184A934257
:1018F0000AD020236922A3540132A3544833002282
:10190000E254002003B030BD1B681B0710D42368CD
:101910001B685B07EDD580210E4B00932B00002246
:10192000C9032000FFF72EFF0028E2D00320E9E7DB
:101930008021084B00932B00002289032000FFF731
:1019400021FF0028E3D00320DCE7C0460038014037
:1019500000440040FFFFFF016923C35C212B2FD10E
:101960003133C35A9BB2002B11D080235B018268B4
:101970009A4218D0C36C5A1CC2641B780268138543
:101980005222835A013B9BB28352002019E0026825
:10199000136880218B4313600268136840390B433E
:1019A000136000200DE00369002BE3D1C36C1B889A
:1019B000DB05DB0D02681385C36C0233C364DFE70C
:1019C0000220704710B50268136840218B431360F2
:1019D00069232022C254FFF751FD002010BD0000F2
:1019E00010B55C23C25A0E33C35C222B32D103687C
:1019F0009B8C9BB28021490184688C420ED0D2B26C
:101A0000416D4C1C446513400B705A22835A013BB4
:101A10009BB28352002B0BD0002021E001690029EA
:101A2000EDD11340426D1380436D02334365ECE703
:101A3000026813680B490B401360026893682331F6
:101A4000FF318B4393606A232022C254FFF717FDB6
:101A5000002005E00268936908210B43936102208E
:101A600010BDC046DFFEFFFF70B504000168CB6902
:101A700008680F221A4003D19D0601D585065BD464
:101A80008D68002A6ED001222A4003D1902676006C
:101A9000304267D0DD0706D5C50504D501250D62A6
:101AA000E16E2943E166990708D5002A06D021682E
:101AB00002250D62E16E02352943E166590708D51A
:101AC000002A06D0216804250D62E16E023D2943FB
:101AD000E166190709D5810601D4002A05D02268DC
:101AE00008211162E26E0A43E266E26E002A45D0E6
:101AF0009B0601D5830623D4E36E1B0703D423681A
:101B00009B685B0628D52000FFF7A6FC23689A682F
:101B100052061DD59A6840218A439A60636E002B55
:101B200012D0214A5A63606EFEF700FC002825D0CF
:101B3000606E436B984721E02000FFF751FF1DE0E6
:101B40002000FFF74DFFD7E72000FFF799FC15E0D5
:101B50002000FFF795FC11E02000FFF791FC002327
:101B6000E3660BE0DA0201D56A0208D41A0601D551
:101B7000020610D45B0601D5430610D470BD802345
:101B80005B030B6220236922A3540132A35420007B
:101B900000F056F8F2E72000FFF7DEFEEEE7200047
:101BA000FFF710FFEAE7C04683140008F8B5040009
:101BB0000F0016001D0000283BD06923C35C002BDA
:101BC0002DD069232422E2542268136801218B431B
:101BD00013602000FFF760FC01281FD0636A002B10
:101BE00023D1226891688023DB010B439360226834
:101BF000936811490B401F43976076052D042E43CF
:101C000023681D680D4A15402E431E602268136824
:101C100001210B4313602000FFF75CFEF8BD683321
:101C20000022C25400F0C4FFCBE72000FFF73AFDCA
:101C3000D7E70120F2E7C046FF7FFFFFFFFF00FC70
:101C40007047000070B50C000B88052B31D143782C
:101C50001B0281781943013189B2C27812020379DB
:101C60001A43531E9BB2154DAB4224D80023238048
:101C700001330370238801332380530713D0D50821
:101C8000EDB20135EDB2861C457023880133238007
:101C90000023300000F02EFE002807D123885D19B4
:101CA0002580002006E0D508EDB2ECE700F0BAF997
:101CB00000E0032070BD0320FCE7C046CE07000013
:101CC00000B583B00B88052B24D143781B028178A3
:101CD0001943013189B20379002B1ED1C278531EFA
:101CE000DBB2FD2B1BD901AB00205870FF2A0BD0B3
:101CF00001AB00221A700123012201A800F0FAFDB5
:101D0000002804D1002006E0FE3A1A70F3E700F044
:101D100089F900E0032003B000BD0320FBE70320A6
:101D2000F9E70000F8B50C000B88052B29D943789A
:101D30001B0281781943013189B2C27812020379FA
:101D40001A43477953070CD0D308DBB20133DBB217
:101D5000551EADB20D4EB54215D8BB4204D003207E
:101D600010E0D308DBB2F3E70630012300F0C2FD38
:101D7000002803D105232380002003E000F052F95E
:101D800000E00320F8BD0320FCE7C046AF070000D9
:101D900070B50C000B88052B30D143781B0281787D
:101DA0001943013189B2C278120203791A43531ED2
:101DB0009BB2144DAB4223D800232380023303701F
:101DC000238801332380530712D0D508EDB20135A3
:101DD000EDB2861C4570238801332380300000F06B
:101DE0008BFD002807D123885D192580002006E09F
:101DF000D508EDB2EDE700F015F900E0032070BD65
:101E00000320FCE7CE07000010B50B88052B01D09E
:101E1000032010BD43781B0281781943013189B238
:101E200003300123012200F02BFD002801D1002006
:101E3000EFE700F0F7F8ECE770B50C000B88052B26
:101E400021D943781B0281781943013189B2C378C3
:101E50001B0202791A434579531E9BB2772B14D883
:101E60005300DBB2AB4201D003200DE0063001236A
:101E700000F006FD002803D105232380002003E0A5
:101E800000F0D0F800E0032070BD0320FCE770B53F
:101E90000C000B88052B28D143781B02817819434D
:101EA000013189B2027995B26B1E9BB27C2B1ED890
:101EB0000023238003330370238801332380861C8F
:101EC0005200427023880133238000232A0030000F
:101ED00000F0D6FC002805D16D0023885D1925800F
:101EE000002003E000F09EF800E0032070BD032016
:101EF000FCE7F8B504000D000B88092B48D943789E
:101F00001B028178194301318EB2C7783F020379F1
:101F10001F4343791B0281791943013189B2C37987
:101F20001B02027A1A43407A7B1E9BB27C2B31D86B
:101F3000002A31D0792A31D85300834201D00320BE
:101F400027E0012320000A3000F09AFC002803D08B
:101F500000281AD100201CE000232B8017332370A7
:101F60002B8801332B80A01C7B0063702B880133EE
:101F70002B8000233A00310000F082FC0028E7D1DA
:101F80007F002B88DF192F80E2E700F04BF800E09C
:101F90000020F8BD0320FCE70320FAE70320F8E760
:101FA00070B50C000B88052B29D143781B02817872
:101FB0001943013189B2C5782D0203791D436B1E87
:101FC0009BB27B2B1DD8002323800433037023880E
:101FD00001332380861C6B004370238801332380E8
:101FE0002A00300000F034FC002805D16D00238861
:101FF0005D192580002003E000F014F800E00320C4
:1020000070BD0320FCE7000070B50D0001300449ED
:102010000C8C220000F08EFF01342C80002070BD5B
:1020200008010020012809D0002803D0072803D088
:10203000042000E0002070470620FCE70220FAE7B9
:1020400070B50D0011001A0004AB1B786C1EE4B2D1
:10205000F62C24D8154C2570002822D12000144CD1
:102060004460144C8460144CC460144C046100241B
:1020700044611348134C04601348144C0460144822
:10208000144C0460280000F073F9041E0AD100F01B
:10209000B1F8002808D0104B01221A7002E0022487
:1020A00000E00224200070BD0324FBE72C01002087
:1020B000B5230008D523000855240008E9230008AB
:1020C000AC020020BD240008A402002069250008FD
:1020D000A8020020F52500080000002010B5074BDD
:1020E0001B78012B07D1064B5B689847034B0022F6
:1020F0001A70002010BD0620FCE7C046000000203A
:102100002C01002010B582B0374B1B78002B62D118
:102110006B46D81D00F07EF8012801D000245BE05A
:102120006B4607331B78012B03D0022B17D00024FA
:1021300052E02E4803690200183201001C312030A1
:102140009847041E4BD1294B20229A5C1B789A4257
:1021500001D0002A40D1022000F054F83CE0234B8B
:10216000D869047821229C5401320121995400231A
:102170000F2B11DCDA001E49525C002A0CD094426D
:1021800001D00133F4E7DB00CB185B68174C21006A
:10219000183198472223E054144A2023D35C002BA3
:1021A0001FD02223D25C002A0DD0104B2121585C75
:1021B0002039198381390143D8690170D869198B95
:1021C0004C1C1C834254094BDC681878D9691A8B63
:1021D000A047002400E00624200002B010BD002427
:1021E000FAE70024F8E7C046000000202C01002098
:1021F00004000020024B00221A7001207047C046E4
:102200004F010020024B01221A70587001207047C4
:102210004F0100200200054B1878002804D059789F
:10222000117000221A7001207047C0464F01002033
:1022300000280ED00E4B1A68136820200343136049
:1022400000290DD10A4B1A68136880218B43136053
:102250007047074B1A681368202083431360EFE729
:10226000034B1A68136880210B431360F0E7C046E4
:102270001C0400200120704700B583B06B46D91DB7
:1022800008700A2301220448FFF7B2FA434258417A
:10229000C0B203B000BDC0461C040020024B1B6846
:1022A0009B8C0370012070471C04002030B583B064
:1022B0000500144C144B2360FEF7DCFD1349FDF7B9
:1022C00023FF013860600023A3603322E2602361B2
:1022D0006361A3610E4B1D802000FFF715F80028F5
:1022E00002D0002003B030BD2023009300230193CF
:1022F00069460448FFF722F8002801D10120F1E7E0
:102300000020EFE7F80600200014004040420F00D4
:102310005201002010B5034B1A885A800248FEF77C
:10232000CBFE10BD52010020F806002010B5024877
:10233000FEF7CEFE10BDC046F806002030B5FF24E3
:10234000FF2508E0037863400749CC5C6C400749EF
:10235000CD5C110001304A1E92B20029F2D1280250
:10236000204380B230BDC0462C3F00082C3E000800
:1023700010B50800140072B608222100FFF77AFF9A
:10238000012810D19623DB019C420AD8610008483D
:10239000FDF7BAFE80B2FFF789FF012806D10020C1
:1023A00002E02320F6E7032062B610BD0320FBE71E
:1023B000A07F170010B572B6054B00221A700021DD
:1023C0000120FFF735FFFFF7A5FF62B610BDC0463D
:1023D0005801002010B572B600210020FFF728FF39
:1023E000FFF7A4FF62B610BD70B505000E00140023
:1023F00072B6134B5B889BB2FF2B16D8104B5B88D1
:102400009BB2032B17D90E4B598889B20D48FFF7A1
:1024100095FF002812D10B4B1A782A70084A52886F
:10242000033A22800133336006E0074B074A9D21BF
:10243000074800F027FD052062B670BD0520FBE7C8
:1024400058010020B8020020944000082C400008E9
:10245000BC40000810B572B6164B1B78012B02D099
:10246000052062B610BD4B1E124C63600121218114
:10247000187021898A1892B22281218989B21800A4
:10248000FFF75CFF23899BB25A1C92B22281C2B231
:102490000949CA5423899BB25A1C92B22281000A6C
:1024A000C0B2C8540123A37201210020FFF7C0FE6F
:1024B0000020D6E758010020B802002000B583B004
:1024C000244B9B7A002B11D16B46D81DFFF7E6FEFB
:1024D000204B1B78DBB2012B15D0002B0DD0022B2B
:1024E00022D0032B0CD0002003B000BD1A4A1B4B96
:1024F0001032E7211A4800F0C5FCFFF70BFFF2E7A6
:10250000FFF708FFEFE7134B00225A805A8892B278
:10251000511C89B259806946C879124988540222EF
:102520001A70FFF7F7FEDEE70A4B5B889BB2FF2BC2
:102530000CD808494B889BB25A1C92B24A806A4612
:10254000D179084AD154FFF7E5FECCE7014B0322CD
:102550001A70F8E7580100202C400008E0400008FD
:10256000BC400008B802002010B51E4B1B78012BA0
:1025700008D11C4B9B7ADBB2002B0BD0012B10D067
:1025800000240CE0184A9121184B243249001848C5
:1025900000F078FC00210120FFF74AFE0024200013
:1025A00010BD104B1B899BB2002B0BD10320FFF7F2
:1025B00029FE040000210120FFF73AFE094B00220A
:1025C0009A72ECE7074C63681878C0B2FFF754FEC4
:1025D0006368013363602389013B9BB2238100243C
:1025E000DDE7C046580100202C400008FC400008F0
:1025F000BC40000810B51A4B1B78DBB2022B1CD074
:10260000032B27D0002B0DD0154B1B78002B23D08C
:10261000134B1B78022B21D0114B1B78032B11D1AC
:10262000002403E00020FFF7EDFD0400FFF77EFE2D
:102630000B4B01221A70200010BD0120FFF7E2FDB4
:102640000400F3E7074A5E21074B3832FF310748A1
:1026500000F018FC0024E9E70024E7E70024E5E7A0
:10266000580100202C40000818410008BC40000818
:10267000F0B58BB01422002105A800F064FC244BB7
:10268000596980200003014359615A69024001924F
:10269000019A596980208002014359615A690240B8
:1026A0000292029A59698020C002014359615A6915
:1026B00002400392039A5A69802149030A435A61EE
:1026C0005B690B400493049B124C134D00222100C4
:1026D0002800FDF71DFF05940127069700240794A5
:1026E000089405A92800FDF747FE062305930B4E25
:1026F0000696079405A92800FDF73EFE0597069665
:102700000794902005A9C005FDF736FE0BB0F0BD7B
:1027100000100240E1030000000800480000121011
:1027200010B50D4C0D4B23600D4B63600023A3606F
:102730000122E26023616361A361E36123622000FF
:10274000FDF7ECFE00212000FDF74EFF00212000E8
:10275000FDF776FF10BDC0468C04002000580040F5
:102760005D3E302010B50E480E4B036082235B00A7
:10277000436000238360C0229200C2600361436112
:10278000013AFF3A8261F93AFF3AC2610362436259
:1027900083620721C16203634263FEF727FC10BD19
:1027A000B80300200038004010B51048104B0360FB
:1027B00080235B05436080235B0483600023C36048
:1027C000012202614361802292018261A022C261E2
:1027D000036243628362C362A532FF3202634363D2
:1027E0009123DB008363FEF7E3FD10BD3807002073
:1027F0000040024010B50A480A4B0360E1235B0227
:10280000436000238360C36003610C2242618361E3
:10281000C3610362436200220021FFF7C7F910BDC4
:102820001C0400200048004010B50748074B036017
:1028300008234360063B8360036100238361C36117
:102840000362FDF727FF10BDD8040020005C0040A4
:10285000FA239B0099420FD98918084B994207DD4A
:1028600001200AE0002303704370013A92B2023063
:10287000002AF7D1002000E001207047F10300009A
:1028800030B5FA242401A14229D95418164DAC427E
:1028900027DC164CA4466144002B0DD0012B1AD026
:1028A00000201DE04C00124BE35A1C0A04704370D8
:1028B0000131013A92B20230002AF3D100200FE038
:1028C00003781B024D0044782343094C2B530131FC
:1028D000013A92B20230002AF2D1002000E0012039
:1028E00030BD0120FCE7C046371000005FF0FFFF5D
:1028F00064010020012070470120704710B598B096
:10290000302200210CA800F01EFB1022002107A895
:1029100000F019FB1C220021684600F014FB222362
:102920000B93213B0E9313930F330F9302241494B4
:1029300080231B02159380235B0316930BA8FDF7DE
:1029400009FF072307930894002409940A9401219E
:1029500007A8FEF7C7F980239B02009306946846F8
:10296000FEF798FA18B010BD00B583B0FDF76AFC09
:10297000FFF7C4FFFFF77CFEFFF7D2FEFFF7F2FE82
:10298000FFF712FFFFF736FFFFF74EFFE1230022AC
:1029900000925B02033201210020FFF751FBFFF799
:1029A0009DFBFFF7AFFBFCE782B00A4B9969012260
:1029B0001143996199690A400092009ADA6980216D
:1029C00049050A43DA61DB690B400193019B02B0C0
:1029D0007047C0460010024010B588B004001422B1
:1029E000002103A800F0AFFA2268134B9A4201D0ED
:1029F00008B010BD114C62698021C9020A436261AE
:102A000063690B400193019BC0231B0103931223B5
:102A10000493113B059303220692079303A90848E8
:102A2000FDF7AAFCE2698021C9030A43E261E36978
:102A30000B400293029BDBE700580040001002406D
:102A40000004004810B588B004001422002103A837
:102A500000F079FA2268124B9A4201D008B010BDFA
:102A6000104BD9698020C0010143D961DA69024065
:102A70000192019A5A698021C9020A435A615B692D
:102A80000B400293029BE0231B0203930223049357
:102A90000133069303A90448FDF76EFCDEE7C04648
:102AA00000380040001002400004004800B583B028
:102AB00002680B4B9A4201D003B000BD094AD169AC
:102AC00020231943D161D26913400193019B002255
:102AD00001211220FDF7D4FB1220FDF701FCEBE7EA
:102AE0000014004000100240F0B5C64600B588B0A2
:102AF00004001422002103A800F025FA2268294BC3
:102B00009A4203D008B004BC9046F0BD264B5969E8
:102B100080204004014359615A6902400092009AA2
:102B2000596980208002014359615A69024001922B
:102B3000019A5A698021C9020A435A615B690B40B4
:102B40000293029B442303930226049603250795D0
:102B50009027FF0503A93800FDF70EFC8823039397
:102B6000763B98460493002405940694079503A9A0
:102B70003800FDF701FC01230393049605940694A5
:102B800007950A4F03A93800FDF7F6FB0396434665
:102B9000049305940694079503A93800FDF7ECFB10
:102BA000B0E7C04600400240001002400004004868
:102BB00070B588B004001422002103A800F0C3F906
:102BC0002268214B9A4201D008B070BD1F4BD969D1
:102BD0008020C0020143D961DA6902400092009A64
:102BE000596980200003014359615A6902400192EA
:102BF000019A5A69802149030A435A615B690B4073
:102C00000293029B81231B01039302260496032552
:102C100006950124079403A90D48FDF7ADFB042395
:102C200003930496002305930695079403A9094886
:102C3000FDF7A2FB002201211D20FDF721FB1D2035
:102C4000FDF74EFBC0E7C0460048004000100240C0
:102C500000080048000C004882B00268074B9A4206
:102C600001D002B07047064AD169802000040143B8
:102C7000D161D36903400193019BF2E7005C0040FE
:102C8000001002407047FEE77047704710B5FDF72F
:102C9000E9FA10BD10B5104B1B68D86920211A68DD
:102CA0000A40014209D0002A07D00C4B1B68984704
:102CB000094B1B6801221A6210BDDA69120606D59B
:102CC0001B681B0603D5064B1B689847F4E70248B0
:102CD000FEF7CAFEF0E7C0461C040020AC0200204C
:102CE000A402002010B50C4B1B681A69D2070FD53F
:102CF000DA68D2070CD5022252421A61074A1388B9
:102D0000013B9BB21380002B02D1054B1B689847F7
:102D10000148FEF7FAF910BDF80600205401002022
:102D2000A80200200120704710B500F0C9F8162352
:102D300003600120404210BD10B501214942FFF758
:102D4000F3FFFEE770B50D001600002404E000E07C
:102D500000BF287001340135B442F8DB300070BD8B
:102D600070B51600002405E04D1C087800E000BF97
:102D700001342900B442F7DB300070BD10B5030008
:102D80000B4A1268002A08D0094A1068C3186A461C
:102D9000934206D8064A136010BD054A05491160E2
:102DA000F2E700F08DF80C23036001204042F3E7C6
:102DB00090020020800700200120404270478023BD
:102DC0009B014B6000207047012070470020704736
:102DD000114B1A6801210A431A605A680F480240D1
:102DE0005A601A680E4802401A601A680D4802407C
:102DF0001A605A680C4802405A60DA6A0F2082430F
:102E0000DA621A6B094802401A635A6B8A435A63A2
:102E100000229A607047C046001002400CB8FF08BC
:102E2000FFFFF6FEFFFFFBFFFFFFC0FF2CFEFCFFD6
:102E30000D4885460D480E490E4A002302E0D4583D
:102E4000C4500433C4188C42F9D30B4A0B4C0023F2
:102E500001E013600432A242FBD3FFF7B9FF00F098
:102E600045F8FFF781FDFEE700400020000000204C
:102E7000EC00002058420008EC0000207C070020F5
:102E8000FEE7000030B51C00094B05001B6885B04B
:102E9000D868084B002A01D1074B1A00029201930F
:102EA00000912B002200054900F010F800F0D2FB41
:102EB000880000207C410008B741000889410008D3
:102EC000014B18687047C046880000200EB403B557
:102ED000010003AB044804CB0068019300F062F8E2
:102EE00002B008BC03B018478800002070B5002667
:102EF0000C4D0D4C641BA410A64209D1002600F015
:102F000079FF0A4D0A4C641BA410A64205D170BD7E
:102F1000B300EB5898470136EEE7B300EB589847FB
:102F20000136F2E7504200085042000850420008C3
:102F300054420008002310B59A4200D110BDCC5C69
:102F4000C4540133F8E703001218934200D17047CC
:102F500019700133F9E7936810B5013B9360002BBA
:102F600004DA9469A34207DB0A2905D01368581CC8
:102F700010601970080010BD00F0A0FA0100F9E718
:102F8000F8B506000F001400D518AC4201D100209E
:102F900007E021783A003000FFF7DDFF0134431CE1
:102FA000F3D1F8BDF0B5A1B003900F0016001D00DD
:102FB000002805D083690593002B01D100F04AFC5D
:102FC0007B4B9F425CD1039B5F68BB891B0763D52A
:102FD0003B69002B60D0002308AC6361203363762B
:102FE0001033A376079535002B78002B01D0252BC5
:102FF0005CD1AB1B05930CD0320039000398FFF76E
:10300000BFFF431C00D1C4E06269059B9446634442
:1030100063612B78002B00D1BBE0012200235242D8
:10302000626004A9543252186E1C2360E360A360EE
:103030001370A365317805225E4800F00BFD751C06
:10304000002835D12268D30604D5532304A95B1880
:1030500020211970130704D5532304A95B182B21D1
:10306000197033782A2B2CD0350000210A20E36810
:103070002A786E1C303A092A64D900292ED026E01D
:103080004D4B9F4202D1039B9F689EE74B4B9F4253
:103090009BD1039BDF6898E73900039800F064FA3E
:1030A000002898D00120404221B0F0BD01359BE7B7
:1030B000404B2268C01A01238340134323602E0033
:1030C000B8E7079B191D1B680791002B01DB0B93C9
:1030D00004E05B42E3600223134323602B782E2B32
:1030E0000AD16B782A2B35D1079B02351A1D1B6834
:1030F0000792002B2BDB0993314E297803223000F5
:1031000000F0A8FC002806D04023801B83402268E2
:10311000013513432360297806222A486E1C217644
:1031200000F098FC00283AD0274B002B25D107222D
:10313000079B07339343083307936369049A9B18EB
:10314000636150E7434301219B18350090E7012359
:103150005B42D0E700230A201A000135636029781A
:103160006E1C3039092903D9002BC5D00992C3E759
:103170004243012352183500F1E707AB00933A00B0
:10318000124B2100039800E000BF0490049B013320
:10319000D3D1BB895B0600D584E70D9884E707ABE4
:1031A00000933A00094B2100039800F07FF8ECE708
:1031B00010420008BC41000830420008F0410008FD
:1031C000C2410008C641000800000000812F00082D
:1031D000F7B5150001938A680B6900900C009342C3
:1031E00000DA130022002B6043321278002A01D04B
:1031F00001332B6023689B0602D52B6802332B60BA
:10320000062723681F4027D0230043331B785A1E0C
:1032100093412268920630D42200019943320098EB
:10322000089EB047431C25D0062320682A68E16821
:1032300003400025042B03D18D1AEB43DB171D40FF
:10324000A3682269934201DD9B1AED180027BD4255
:1032500020D1002010E00137E3682A689B1ABB42A6
:10326000D2DD22000123193201990098089EB0474F
:10327000431CF0D101204042FEBD3020E118433113
:10328000087021005A1C45310978A21843320233D4
:103290001170C1E7220001231A3201990098089E9B
:1032A000B047431CE6D00137D1E70000F0B589B044
:1032B00004920A0043320593039002920A7E0C00A6
:1032C0000E9B6E2A00D186E01FD8632A33D008D81F
:1032D000002A00D18CE0582A4DD0250042352A70B2
:1032E00030E0642A01D0692AF7D1196825680A1DDF
:1032F000280629D508681A60002803DA2D23029AC7
:10330000404213706B4E0A274FE0732A74D008D8DE
:103310006F2A1FD0702AE0D1202209680A43226058
:1033200003E0752A16D0782AD7D1220078214532B9
:103330001170614E22E025001A684235111D196096
:1033400013682B70012365E008681A606906D3D5FD
:1033500000B2D1E719682568081D186008682E06B4
:1033600005D5544E08276F2A1BD00A2719E06D0691
:10337000F7D580B2F5E745314E4E0A7018682268DD
:10338000011D00681960150621D5D30702D5202339
:103390001A4322601027002803D1202322689A4371
:1033A00022602300002243331A706368A360002B5D
:1033B00058DB0422216891432160002854D1029DEA
:1033C000002B5AD02500337842352B7055E0550636
:1033D000DBD580B2D9E71A680D68101D49691860FD
:1033E00013682E0601D5196002E06D06FBD5198021
:1033F0000023029D23614FE01A68111D19601568B2
:1034000000216268280000F025FB002801D0401B45
:103410006060636823610023029A13703CE02369B3
:103420002A0004990398059DA847431C3ED02368B1
:103430009B0715D4079BE068984239DA180037E0FB
:1034400022000123193204990398059EB047431CBA
:103450002CD00135E368079A9B1AAB42F0DCE9E710
:103460000025F7E70028ADD0029D3900FCF7D2FE19
:10347000735C013D2B700028F7D1082F09D1236818
:10348000DB0706D563682269934202DC3023013DE5
:103490002B70029B5B1B2361059B07AA00932100F5
:1034A000049B0398FFF794FE431CB8D101204042CF
:1034B00009B0F0BDCD410008DE410008F8B50500B7
:1034C0000E001400002804D08369002B01D100F005
:1034D000C1F9224B9C422DD16C68A369A360A389DA
:1034E0001B0731D52369002B2ED023682269F7B240
:1034F000981A6369F6B2834205DC2100280000F0C7
:103500003BF9002826D1A3680130013BA360236862
:103510005A1C22601F706369834204D0A389DB07B1
:103520001AD50A2E18D12100280000F025F900280C
:1035300012D00FE00A4B9C4201D1AC68CDE7094B99
:103540009C42CAD1EC68C8E72100280000F00CF8C2
:103550000028CAD0012676423000F8BD104200088B
:1035600030420008F0410008364B70B51D68060077
:103570000C00002D05D0AB69002B02D1280000F013
:1035800069F9314B9C420FD16C680C23E25E93B217
:1035900019072DD4D90611D40923012033603733FC
:1035A0001343A381404270BD284B9C4201D1AC68BB
:1035B000EBE7274B9C42E8D1EC68E6E75B0713D5C5
:1035C000616B002908D023004433994202D03000B7
:1035D00000F04CFA002363632422A3899343A38160
:1035E00000236360236923600823A2891343A38116
:1035F0002369002B0BD1A0218022A389890092008E
:103600000B40934203D02100300000F0DFF901238A
:10361000A289134011D00023A36063695B42A361B8
:10362000002023698342BED10C23E25E1306BAD583
:1036300040231343A3810138B5E7920700D463699F
:10364000A360EDE788000020104200083042000827
:10365000F041000810B5062000F0ECFA0120FFF759
:103660006BFB0000F7B58A8905000C00130760D4D6
:103670004B68002B04DC0B6C002B01DC0020FEBD32
:10368000E76A002FFAD000232E682B6080235B01AD
:10369000216A1A4034D0606DA3895B0706D5636840
:1036A000C01A636B002B01D0236CC01A0200216A80
:1036B00000232800E76AB847A189431C06D12B687C
:1036C0001D2B30D82B4ADA40D3072CD5002363605A
:1036D00023692360CB0405D5431C02D12B68002B42
:1036E00000D16065616B2E600029C7D02300443390
:1036F000994202D0280000F0B9F900206063BEE7CB
:1037000001232800B847431CC6D12B68002BC3D027
:103710001D2B01D0162B01D12E60AFE74023A289CB
:103720001343A381ABE740230B430120A381404215
:10373000A5E70F69002FA1D00B680F60DB1B019379
:103740000023920700D14B69A360019B002B00DC92
:1037500094E7019B3A00216A2800A66AB047002836
:1037600003DC4023A2891343DFE7019B3F181B1AA8
:103770000193EAE7010040200B6970B505000C00D9
:10378000002B01D1002070BD002804D08369002BDC
:1037900001D100F05FF80B4B9C4209D16C680C2200
:1037A000A35E002BEED021002800FFF75BFFEAE7C5
:1037B000054B9C4201D1AC68F1E7044B9C42EED131
:1037C000EC68ECE71042000830420008F0410008C5
:1037D000002310B504000360436083608181436669
:1037E000C281036143618361190008225C30FFF7E5
:1037F000AAFB054B24626362044BA362044BE362A1
:10380000044B236310BDC046753C00089D3C000876
:10381000D53C0008013D000810B5024900F08CF8C5
:1038200010BDC0467937000870B568254A1E55435B
:103830000E002900743100F063F9041E08D0002145
:103840002A00016046600C30A0606832FFF77BFB05
:10385000200070BD836913B50400002B28D1836458
:10386000C3640365134B144A1B6882620193984238
:1038700001D101238361200000F020F86060200066
:1038800000F01CF8A060200000F018F80022E060B2
:1038900004216068FFF79CFF01220921A068FFF75F
:1038A00097FF02221221E068FFF792FF0123A36134
:1038B00013BDC046B841000819380008F8B51C4BC4
:1038C00007001E68B369002B02D13000FFF7C2FF6A
:1038D0004836B4687368013B04D53368002B07D0C1
:1038E0003668F6E70C22A55E002D0DD06834F2E7AD
:1038F00004213800FFF798FF30600028F0D10C2336
:1039000004003B602000F8BD20000A4B656625607E
:103910006560A560E36025616561A56108222900F5
:103920005C30FFF710FB6563A563A564E564E9E718
:10393000B84100080100FFFFF7B5040007000026AA
:1039400001914834002C01D13000FEBD6368A568A8
:103950000093009B013B009301D52468F2E7AB89FB
:10396000012B08D90E22AB5E013304D029003800A8
:10397000019B984706436835EBE7000070B50E00E1
:103980001D000E23C95E96B01400002907DA00233B
:103990002B60B3891B0611D48023DB000FE06A463D
:1039A00000F0DAF90028F2DBF022019B120213404A
:1039B000054A9B185A4253412B60EDE740230020F3
:1039C000236016B070BDC04600E0FFFFF7B50226C9
:1039D0008B8905000C00334206D023004733236057
:1039E000236101236361F7BD01AB6A46FFF7C6FFA0
:1039F00000990700280000F083F8002808D10C2265
:103A0000A35E9A05EFD4032293431E43A681E4E705
:103A10000F4BAB628023A28920601343A381009BDC
:103A200020616361019B002B0DD00E23E15E280015
:103A300000F0A4F9002806D00322A38993431A00BA
:103A400001231343A381A0893843A081CBE7C0465B
:103A500019380008C9B28218904201D1002070477D
:103A600003788B42FBD00130F6E7000070B505000B
:103A7000002910D00C1F2368002B00DAE41828005E
:103A800000F0A2F91D4A1368002B05D16360146091
:103A9000280000F09AF970BDA34209D92168601886
:103AA0008342F3D118685B6841182160EEE7130088
:103AB0005A68002A01D0A242F9D919685818A042C0
:103AC0000BD120680918581819608242E0D110689B
:103AD0005268411819605A60DAE7A04202D90C23F3
:103AE0002B60D5E721686018824203D110685268C4
:103AF0004118216062605C60CAE7C04698020020FD
:103B0000032370B5CD1C9D43083506000C2D1ED235
:103B10000C25A9421DD8300000F056F9254A14683A
:103B20002100002919D1244C2368002B03D1300037
:103B300000F044F820602900300000F03FF8431CFA
:103B40002BD10C233000336000F03FF903E0002D4F
:103B5000DFDA0C233360002070BD0B685B1B19D4C7
:103B60000B2B03D90B60CC18256003E04B688C420B
:103B70000DD11360300000F028F9200007220B302F
:103B8000231D9043C31AE7D05A42E250E4E7636032
:103B90000C00EFE70C004968C3E70323C41C9C43F7
:103BA000A042E1D0211A300000F008F8431CDBD11C
:103BB000C7E7C046980200209C020020002370B591
:103BC000064C050008002360FFF7D8F8431C03D11A
:103BD0002368002B00D02B6070BDC0467807002002
:103BE00070B504000D001F2904D9162303600120BD
:103BF000404270BD436C002B04D08A009B181A68A9
:103C0000002A08D1200000F031F82A00010020002D
:103C100000F01AF8EDE70020012AEAD0511C03D188
:103C2000162301302360E4E7002428001C6090473D
:103C30002000DEE710B5034B01001868FFF7D0FF46
:103C400010BDC04688000020002370B5064C05005A
:103C5000080011002360FFF767F8431C03D12368B5
:103C6000002B00D02B6070BD7807002010B5FFF747
:103C700059F810BD70B50C000E25495F00F0A6F88C
:103C8000002803DB636D1B18636570BDA389024ABE
:103C90001340A381F9E7C046FFEFFFFFF8B51F000F
:103CA0008B8905000C001600DB0505D50E23C95EC7
:103CB0000022022300F074F8A389054A280013406B
:103CC000A38132000E23E15E3B0000F01FF8F8BD37
:103CD000FFEFFFFF70B50C000E25495F00F060F8A4
:103CE000A389421C03D1054A1340A38170BD8022E1
:103CF00052011343A3816065F8E7C046FFEFFFFF61
:103D000010B50E23C95E00F015F810BD70B50500A2
:103D1000080011000022064C22601A00FFF720F86C
:103D2000431C03D12368002B00D02B6070BDC0461C
:103D300078070020002370B5064C050008002360BA
:103D4000FFF73AF8431C03D12368002B00D02B6007
:103D500070BDC04678070020002370B5064C0500F2
:103D6000080011002360FFF72AF8431C03D12368E1
:103D7000002B00D02B6070BD78070020002370B5A9
:103D8000064C050008002360FFF71EF8431C03D112
:103D90002368002B00D02B6070BDC0467807002040
:103DA00070B50500080011000022064C22601A00C0
:103DB000FFF70CF8431C03D12368002B00D02B60C5
:103DC00070BDC046780700207047704770B5050089
:103DD000080011000022064C22601A00FEF7B2FF14
:103DE000431C03D12368002B00D02B6070BDC0465C
:103DF00078070020F8B5C046F8BC08BC9E4670475E
:0C3E0000F8B5C046F8BC08BC9E467047F0
:103E0C0002030405060708090A0B0C0D0E0F10100F
:103E1C000102030405060708090A0B0C0D0E0F100E
:103E2C0000C0C101C30302C2C60607C705C5C4044E
:103E3C00CC0C0DCD0FCFCE0E0ACACB0BC90908C8BE
:103E4C00D81819D91BDBDA1A1EDEDF1FDD1D1CDCAE
:103E5C0014D4D515D71716D6D21213D311D1D0101E
:103E6C00F03031F133F3F23236F6F737F53534F40E
:103E7C003CFCFD3DFF3F3EFEFA3A3BFB39F9F8387E
:103E8C0028E8E929EB2B2AEAEE2E2FEF2DEDEC2C6E
:103E9C00E42425E527E7E62622E2E323E12120E0DE
:103EAC00A06061A163A3A26266A6A767A56564A4CE
:103EBC006CACAD6DAF6F6EAEAA6A6BAB69A9A8683E
:103ECC0078B8B979BB7B7ABABE7E7FBF7DBDBC7C2E
:103EDC00B47475B577B7B67672B2B373B17170B09E
:103EEC00509091519353529296565797559594548E
:103EFC009C5C5D9D5F9F9E5E5A9A9B5B99595898FE
:103F0C00884849894B8B8A4A4E8E8F4F8D4D4C8CED
:103F1C00448485458747468682424383418180405D
:103F2C0000C1814001C0804101C0804100C181407D
:103F3C0001C0804100C1814000C1814001C080416D
:103F4C0001C0804100C1814000C1814001C080415D
:103F5C0000C1814001C0804101C0804100C181404D
:103F6C0001C0804100C1814000C1814001C080413D
:103F7C0000C1814001C0804101C0804100C181402D
:103F8C0000C1814001C0804101C0804100C181401D
:103F9C0001C0804100C1814000C1814001C080410D
:103FAC0001C0804100C1814000C1814001C08041FD
:103FBC0000C1814001C0804101C0804100C18140ED
:103FCC0000C1814001C0804101C0804100C18140DD
:103FDC0001C0804100C1814000C1814001C08041CD
:103FEC0000C1814001C0804101C0804100C18140BD
:103FFC0001C0804100C1814000C1814001C08041AD
:10400C0001C0804100C1814000C1814001C080419C
:10401C0000C1814001C0804101C0804100C181408C
:10402C00654D4252545552656365697665000000D2
:10403C00784D425254555265636569766546534DC9
:10404C0000000000784D425254555472616E736DED
:10405C00697446534D000000784D425254555469D2
:10406C006D65725433354578706972656400000073
:10407C00000000000000000001020304060708090C
:10408C0000000000010203047573526376427566EA
:10409C00666572506F73203C204D425F5345525FF2
:1040AC005044555F53495A455F4D4158000000003C
:1040BC002E2E2F4D6964646C6577617265732F6D5C
:1040CC006F646275732F7274752F6D627274752EB6
:1040DC006300000065536E645374617465203D3D4C
:1040EC002053544154455F54585F49444C4500009B
:1040FC00655263765374617465203D3D2053544181
:10410C0054455F52585F49444C4500002820655285
:10411C0063765374617465203D3D2053544154457E
:10412C005F52585F494E49542029207C7C2028201E
:10413C00655263765374617465203D3D2053544140
:10414C0054455F52585F5243562029207C7C2028CE
:10415C0020655263765374617465203D3D20535441
:10416C004154455F52585F4552524F52202900002E
:10417C002C2066756E6374696F6E3A2000617373E0
:10418C00657274696F6E2022257322206661696CDA
:10419C0065643A2066696C6520222573222C206C9C
:1041AC00696E65202564257325730A008C00002038
:1041BC00232D302B2000686C4C0065666745464704
:1041CC000030313233343536373839414243444587
:1041DC0046003031323334353637383961626364F6
:1041EC0065660000000000000000000000000000F8
:1041FC0000000000000000000000000000000000B3
:10420C0000000000000000000000000000000000A2
:10421C000000000000000000000000000000000092
:10422C000000000000000000000000000000000082
:10423C000000000000000000000000000000000072
:04424C00000000006E
:04425000E900000879
:04425400C10000089D
:10425800020000001100000009200008040000000E
:10426800A11F0008030000008F1E000810000000B6
:10427800391E000806000000091E0008170000008B
:10428800F31E000801000000451C0008050000009E
:10429800C11C00080F000000251D000802000000D6
:1042A800911D000800000000000000000000000050
:1042B80000000000000000000000000000000000F6
:1042C80000000000000000000000000000000000E6
:1042D8000000000000127A008C000020000000009E
:1042E8001042000830420008F041000800000000B9
:1042F80000000000000000000000000000000000B6
:1043080000000000000000000000000000000000A5
:104318000000000000000000000000000000000095
:104328000000000000000000000000000000000085
:0C43380000000000000000000000000079
:0400000508002E3190
:00000001FF
